{
  "contractName": "Harvest",
  "abi": [
    {
      "constant": false,
      "inputs": [
        {
          "name": "id",
          "type": "bytes32"
        },
        {
          "name": "netizenType",
          "type": "bytes32"
        },
        {
          "name": "village",
          "type": "bytes32"
        }
      ],
      "name": "addNetizen",
      "outputs": [
        {
          "name": "success",
          "type": "bool"
        }
      ],
      "payable": false,
      "stateMutability": "nonpayable",
      "type": "function"
    },
    {
      "constant": true,
      "inputs": [],
      "name": "getPath",
      "outputs": [
        {
          "name": "",
          "type": "address[]"
        }
      ],
      "payable": false,
      "stateMutability": "view",
      "type": "function"
    },
    {
      "constant": false,
      "inputs": [
        {
          "name": "name",
          "type": "bytes32"
        },
        {
          "name": "village",
          "type": "bytes32"
        }
      ],
      "name": "addFarmer",
      "outputs": [
        {
          "name": "success",
          "type": "bool"
        }
      ],
      "payable": false,
      "stateMutability": "nonpayable",
      "type": "function"
    },
    {
      "constant": false,
      "inputs": [
        {
          "name": "crop",
          "type": "string"
        },
        {
          "name": "to",
          "type": "address"
        }
      ],
      "name": "sendCrop",
      "outputs": [
        {
          "name": "success",
          "type": "bool"
        }
      ],
      "payable": true,
      "stateMutability": "payable",
      "type": "function"
    }
  ],
  "bytecode": "0x6060604052341561000f57600080fd5b61089f8061001e6000396000f300606060405260043610610062576000357c0100000000000000000000000000000000000000000000000000000000900463ffffffff1680632cdc022a14610067578063555b37be146100c0578063830896321461012a578063ef4713a214610176575b600080fd5b341561007257600080fd5b6100a660048080356000191690602001909190803560001916906020019091908035600019169060200190919050506101ff565b604051808215151515815260200191505060405180910390f35b34156100cb57600080fd5b6100d3610349565b6040518080602001828103825283818151815260200191508051906020019060200280838360005b838110156101165780820151818401526020810190506100fb565b505050509050019250505060405180910390f35b341561013557600080fd5b61015c600480803560001916906020019091908035600019169060200190919050506103dd565b604051808215151515815260200191505060405180910390f35b6101e5600480803590602001908201803590602001908080601f0160208091040260200160405190810160405280939291908181526020018383808284378201915050505050509190803573ffffffffffffffffffffffffffffffffffffffff16906020019091905050610532565b604051808215151515815260200191505060405180910390f35b60008360001916600360003373ffffffffffffffffffffffffffffffffffffffff1673ffffffffffffffffffffffffffffffffffffffff1681526020019081526020016000206000015460001916141561025c5760009050610342565b83600360003373ffffffffffffffffffffffffffffffffffffffff1673ffffffffffffffffffffffffffffffffffffffff168152602001908152602001600020600001816000191690555082600360003373ffffffffffffffffffffffffffffffffffffffff1673ffffffffffffffffffffffffffffffffffffffff168152602001908152602001600020600101816000191690555081600360003373ffffffffffffffffffffffffffffffffffffffff1673ffffffffffffffffffffffffffffffffffffffff1681526020019081526020016000206002018160001916905550600190505b9392505050565b61035161078e565b60018054806020026020016040519081016040528092919081815260200182805480156103d357602002820191906000526020600020905b8160009054906101000a900473ffffffffffffffffffffffffffffffffffffffff1673ffffffffffffffffffffffffffffffffffffffff1681526020019060010190808311610389575b5050505050905090565b600082600019166000803373ffffffffffffffffffffffffffffffffffffffff1673ffffffffffffffffffffffffffffffffffffffff16815260200190815260200160002060000154600019161415610439576000905061052c565b826000803373ffffffffffffffffffffffffffffffffffffffff1673ffffffffffffffffffffffffffffffffffffffff1681526020019081526020016000206000018160001916905550816000803373ffffffffffffffffffffffffffffffffffffffff1673ffffffffffffffffffffffffffffffffffffffff168152602001908152602001600020600101816000191690555060008060003373ffffffffffffffffffffffffffffffffffffffff1673ffffffffffffffffffffffffffffffffffffffff16815260200190815260200160002060020160006101000a81548160ff021916908315150217905550600190505b92915050565b600082600260008473ffffffffffffffffffffffffffffffffffffffff1673ffffffffffffffffffffffffffffffffffffffff168152602001908152602001600020600001908051906020019061058a9291906107a2565b5034600260008473ffffffffffffffffffffffffffffffffffffffff1673ffffffffffffffffffffffffffffffffffffffff16815260200190815260200160002060010181905550600060018054905014156106ab57600180548060010182816105f49190610822565b9160005260206000209001600033909190916101000a81548173ffffffffffffffffffffffffffffffffffffffff021916908373ffffffffffffffffffffffffffffffffffffffff16021790555050600180548060010182816106579190610822565b9160005260206000209001600084909190916101000a81548173ffffffffffffffffffffffffffffffffffffffff021916908373ffffffffffffffffffffffffffffffffffffffff16021790555050610784565b3373ffffffffffffffffffffffffffffffffffffffff166001808080549050038154811015156106d757fe5b906000526020600020900160009054906101000a900473ffffffffffffffffffffffffffffffffffffffff1673ffffffffffffffffffffffffffffffffffffffff16141561078357600180548060010182816107339190610822565b9160005260206000209001600084909190916101000a81548173ffffffffffffffffffffffffffffffffffffffff021916908373ffffffffffffffffffffffffffffffffffffffff160217905550505b5b6001905092915050565b602060405190810160405280600081525090565b828054600181600116156101000203166002900490600052602060002090601f016020900481019282601f106107e357805160ff1916838001178555610811565b82800160010185558215610811579182015b828111156108105782518255916020019190600101906107f5565b5b50905061081e919061084e565b5090565b81548183558181151161084957818360005260206000209182019101610848919061084e565b5b505050565b61087091905b8082111561086c576000816000905550600101610854565b5090565b905600a165627a7a72305820643c20fea3ad9e7282397a787ae389d0936158366b132fffd20d9fd2dbf058bc0029",
  "source": "pragma solidity ^0.4.17;\n/*pragma experimental ABIEncoderV2;*/\n\ncontract Harvest {\n  struct Farmer {\n    bytes32 name;\n    bytes32 village;\n    bool certified;\n  }\n  mapping(address => Farmer) farmers;\n\n  struct Crop {\n    bytes32 name;\n    /*bytes32 harvestDate;*/\n    /*bytes32 village;*/\n  }\n\n  /*struct Academic {\n    uint id;\n    uint universityId;\n    bytes32 name;\n    bytes32 education;\n    uint energyConsumed;\n    uint waterConsumed;\n  }\n\n  struct University {\n    uint id;\n    bytes32 name;\n    bytes32 district;\n    bytes32 state;\n    uint energyConsumed;\n    uint waterConsumed;\n    uint rank;\n  }\n\n  struct Distributor {\n    uint id;\n    bytes32 name;\n    bytes32 district;\n    bytes32 state;\n    uint energyConsumed;\n    uint waterConsumed;\n    uint rank;\n  }*/\n\n  struct Market {\n    uint id;\n    bytes32 country;\n  }\n\n  struct Stock {\n    string crop;\n    uint quantity;\n  }\n\n  address[] paths;\n  mapping(address => Stock) stockData;\n\n  struct Netizen {\n    bytes32 id;\n    bytes32 netizenType;\n    bytes32 village;\n  }\n\n  mapping (address => Netizen) netizens;\n\n  function addNetizen(bytes32 id, bytes32 netizenType, bytes32 village) returns (bool success){\n    if (netizens[msg.sender].id == id) return false;\n\n    netizens[msg.sender].id = id;\n    netizens[msg.sender].netizenType = netizenType;\n    netizens[msg.sender].village = village;\n\n    return true;\n  }\n\n  function addFarmer(bytes32 name, bytes32 village) returns (bool success) {\n    if (farmers[msg.sender].name == name) return false;\n\n    farmers[msg.sender].name = name;\n    farmers[msg.sender].village = village;\n    farmers[msg.sender].certified = false;\n\n    return true;\n  }\n\n  function sendCrop(string crop, address to) payable returns (bool success) {\n    stockData[to].crop = crop;\n    stockData[to].quantity = msg.value;\n    if (paths.length == 0) {\n      paths.push(msg.sender);\n      paths.push(to);\n    } else if (paths[paths.length-1] == msg.sender) {\n      paths.push(to);\n    }\n    return true;\n  }\n\n  function getPath() constant returns (address[] ) {\n    return paths;\n  }\n}\n",
  "sourcePath": "/home/flake/dev/vridhi-eth/contracts/Harvest.sol",
  "compiler": {
    "name": "solc",
    "version": "0.4.18+commit.9cf6e910.Emscripten.clang"
  },
  "schemaVersion": "1.0.1",
  "updatedAt": "2018-01-21T11:41:51.357Z"
}