{
  "contractName": "Netizens",
  "abi": [
    {
      "constant": false,
      "inputs": [
        {
          "name": "id",
          "type": "bytes32"
        },
        {
          "name": "netizenType",
          "type": "bytes32"
        },
        {
          "name": "village",
          "type": "bytes32"
        }
      ],
      "name": "addNetizen",
      "outputs": [
        {
          "name": "success",
          "type": "bool"
        }
      ],
      "payable": false,
      "stateMutability": "nonpayable",
      "type": "function"
    }
  ],
  "bytecode": "0x6060604052341561000f57600080fd5b6102118061001e6000396000f300606060405260043610610041576000357c0100000000000000000000000000000000000000000000000000000000900463ffffffff1680632cdc022a14610046575b600080fd5b341561005157600080fd5b610085600480803560001916906020019091908035600019169060200190919080356000191690602001909190505061009f565b604051808215151515815260200191505060405180910390f35b600083600019166000803373ffffffffffffffffffffffffffffffffffffffff1673ffffffffffffffffffffffffffffffffffffffff168152602001908152602001600020600001546000191614156100fb57600090506101de565b836000803373ffffffffffffffffffffffffffffffffffffffff1673ffffffffffffffffffffffffffffffffffffffff1681526020019081526020016000206000018160001916905550826000803373ffffffffffffffffffffffffffffffffffffffff1673ffffffffffffffffffffffffffffffffffffffff1681526020019081526020016000206001018160001916905550816000803373ffffffffffffffffffffffffffffffffffffffff1673ffffffffffffffffffffffffffffffffffffffff1681526020019081526020016000206002018160001916905550600190505b93925050505600a165627a7a7230582001d569d4e4707fc6d58618a1f8209dddbc4dbdd30d683631d0d9ac18f756284b0029",
  "source": "pragma solidity ^0.4.17;\n/*pragma experimental ABIEncoderV2;*/\n\ncontract Farmers {\n  struct Farmer {\n    bytes32 name;\n    bytes32 village;\n    bool certified;\n  }\n  mapping(address => Farmer) farmers;\n\n  function addFarmer(bytes32 name, bytes32 village) returns (bool success) {\n    if (farmers[msg.sender].name == name) return false;\n\n    farmers[msg.sender].name = name;\n    farmers[msg.sender].village = village;\n    farmers[msg.sender].certified = false;\n\n    return true;\n  }\n}\n\ncontract Netizens {\n  struct Netizen {\n    bytes32 id;\n    bytes32 netizenType;\n    bytes32 village;\n  }\n\n  mapping (address => Netizen) netizens;\n\n  function addNetizen(bytes32 id, bytes32 netizenType, bytes32 village) returns (bool success){\n    if (netizens[msg.sender].id == id) return false;\n\n    netizens[msg.sender].id = id;\n    netizens[msg.sender].netizenType = netizenType;\n    netizens[msg.sender].village = village;\n\n    return true;\n  }\n}\n\ncontract Harvest {\n  struct Crop {\n    bytes32 name;\n    /*bytes32 harvestDate;*/\n    /*bytes32 village;*/\n  }\n\n  /*struct Academic {\n    uint id;\n    uint universityId;\n    bytes32 name;\n    bytes32 education;\n    uint energyConsumed;\n    uint waterConsumed;\n  }\n\n  struct University {\n    uint id;\n    bytes32 name;\n    bytes32 district;\n    bytes32 state;\n    uint energyConsumed;\n    uint waterConsumed;\n    uint rank;\n  }\n\n  struct Distributor {\n    uint id;\n    bytes32 name;\n    bytes32 district;\n    bytes32 state;\n    uint energyConsumed;\n    uint waterConsumed;\n    uint rank;\n  }*/\n\n  struct Market {\n    uint id;\n    bytes32 country;\n  }\n\n  struct Stock {\n    string crop;\n    uint quantity;\n  }\n\n  address[] paths;\n  mapping(address => Stock) stockData;\n\n  function sendCrop(string crop, address to) returns (bool success) {\n    stockData[to].crop = crop;\n    stockData[to].quantity = msg.value;\n    if (paths.length == 0) {\n      paths.push(msg.sender);\n      paths.push(to);\n    } else if (paths[paths.length-1] == msg.sender) {\n      paths.push(to);\n    }\n    return true;\n  }\n}\n",
  "sourcePath": "/home/flake/dev/vridhi-eth/contracts/Harvest.sol",
  "compiler": {
    "name": "solc",
    "version": "0.4.18+commit.9cf6e910.Emscripten.clang"
  },
  "schemaVersion": "1.0.1",
  "updatedAt": "2018-01-21T08:36:52.275Z"
}